:04000000FEEFFFF020
:10100000004D6963726F62696F732032303236004F
:10101000486F6C6120766572616E6F6E0043756516
:101020006E74613A00000DC006F00EC007F0270E86
:10103000096E100E086E4CEC09F00650106E270E6B
:10104000046E100E036E0DC001F00EC002F0BEEC77
:1010500009F001C006F002C007F0030E096EE80EA9
:10106000086E4CEC09F00650116E030E046EE80E8B
:10107000036E0DC001F00EC002F0BEEC09F001C01D
:1010800006F002C007F0096A640E086E4CEC09F025
:101090000650126E046A640E036E0DC001F00EC09D
:1010A00002F0BEEC09F001C006F002C007F0096AC8
:1010B0000A0E086E4CEC09F00650136E0DC001F0DC
:1010C0000EC002F0046A0A0E036EBEEC09F0015075
:1010D000146EB1EF08F01450300F8DEC0AF0C8EF29
:1010E00008F01350300F8DEC0AF01450300F8DECD7
:1010F0000AF0C8EF08F01250300F8DEC0AF01350D0
:10110000300F8DEC0AF01450300F8DEC0AF0C8EF60
:1011100008F01150300F8DEC0AF01250300F8DECAA
:101120000AF01350300F8DEC0AF01450300F8DEC94
:101130000AF0C8EF08F01050300F8DEC0AF0115093
:10114000300F8DEC0AF01250300F8DEC0AF0135076
:10115000300F8DEC0AF01450300F8DEC0AF0C8EF10
:1011600008F00F50010AD8B46BEF08F0030AD8B4A6
:1011700071EF08F0010AD8B47BEF08F0070AD8B481
:1011800089EF08F0010AD8B49BEF08F0C8EF08F027
:101190001200CCEC0AF0010E046E010E11EC09F005
:1011A000100E046E1AEC0AF0000E046E020E11EC22
:1011B00009F0010E046E1AEC0AF07A0E166EC10EDA
:1011C000156E820EE82EFED7152EFCD7162EFAD7F6
:1011D000DFEC0AF0000E046E020E11EC09F01D0E99
:1011E000046E1AEC0AF017C00DF018C00EF0050ED0
:1011F0000F6E13EC08F0030E166E080E156E770EC8
:10120000E82EFED7152EFCD7162EFAD70000010EB9
:101210001724176E000E1820186EEAEF08F0FEEF84
:10122000FFF0056E0504D8A418EF09F01AEF09F0D5
:1012300020EF09F00450800F74EC0AF04BEF09F036
:10124000020E0518D8A427EF09F029EF09F02FEFB7
:1012500009F00450C00F74EC0AF04BEF09F0030ED4
:101260000518D8A436EF09F038EF09F03EEF09F081
:101270000450940F74EC0AF04BEF09F0040E0518BB
:10128000D8A445EF09F047EF09F04BEF09F00450FF
:10129000D40F74EC0AF012000B6A000E0A6E0850AC
:1012A0000910D8B456EF09F058EF09F080EF09F0B3
:1012B000010E0C6E60EF09F0D890083609360C2A42
:1012C00009AE65EF09F067EF09F05CEF09F0D8901F
:1012D0000A360B360850065C09500758D8A073EF41
:1012E00009F075EF09F07AEF09F00850065E095031
:1012F000075A0A80D890093208320C2E67EF09F09D
:101300000AC006F00BC007F01200F80E8A6E859036
:1013100085828584A00E00D0E82EFDD78FCF01F006
:101320008594A00E00D0E82EFDD78584A00E00D0B5
:10133000E82EFDD785940150800B016EB4EF09F0C3
:101340008584A00E00D0E82EFDD78FCF01F08594C4
:10135000A00E00D0E82EFDD78584A00E00D0E82E88
:10136000FDD785949BEF09F0800E0118D8B4BBEF30
:1013700009F0BDEF09F0A0EF09F0120003500410CE
:10138000D8B4C5EF09F0C7EF09F0EBEF09F0010E93
:10139000056ECFEF09F0D89003360436052A04AE67
:1013A000D4EF09F0D6EF09F0CBEF09F00350015C60
:1013B00004500258D8A0DFEF09F0E1EF09F0E5EFA3
:1013C00009F00350015E0450025AD89004320332EF
:1013D000052ED6EF09F001C001F002C002F01200A4
:1013E00085908592300EBEEC0AF0150E046EC60E86
:1013F000E82EFED7042EFCD700D0300EBEEC0AF04B
:10140000A00E00D0E82EFDD7300EBEEC0AF0200E64
:10141000BEEC0AF0010E74EC0AF0280E74EC0AF02F
:101420000F0E74EC0AF0060E74EC0AF0010E74EC68
:101430000AF0120004C001F058EC0AF00150066EE8
:10144000076A31EF0AF004500724056E05C0F6FF65
:10145000100EF76E000EF86E0800F5508DEC0AF0D5
:10146000072A0650075CD8A038EF0AF03AEF0AF0D6
:1014700023EF0AF012008A6A0F01216B9C0E056EA1
:10148000D70EE82EFED7052EFCD70000F0EC09F0B1
:101490009C0E056ED70EE82EFED7052EFCD7000059
:1014A000DFEC0AF0DBEC0AF0010EA6EC0AF0120009
:1014B00001C003F05DEF0AF0012A01C0F6FF100E33
:1014C000F76E000EF86E0800F5500009D8A46BEF17
:1014D0000AF06DEF0AF05CEF0AF00350015C016E58
:1014E000026A01BE02061200026E859085EC09F0C8
:1014F0008A6AA00E00D0E82EFDD78592859485904B
:101500000250F00B036E0350BEEC0AF00238F00BF1
:10151000036E0350BEEC0AF01200026E858085EC6B
:1015200009F08A6AA00E00D0E82EFDD78592859436
:1015300085800250F00B036E0350BEEC0AF00238B7
:10154000F00B036E0350BEEC0AF01200046E045060
:10155000D8A4ADEF0AF0AFEF0AF0B2EF0AF00E0E2A
:1015600074EC0AF00404D8A4B8EF0AF0BAEF0AF059
:10157000BDEF0AF00C0E74EC0AF01200016E0F0EB3
:101580008516F00E0116015085128584A00E00D03C
:10159000E82EFDD785941200600E0E01D36F060E63
:1015A000D96F400ED76F3BEC0AF01200186A176A29
:1015B0000001C9EF08F0020E74EC0AF01200010EEF
:0615C00074EC0AF01200B9
:020000040001F9
:04FFFC00D6EF0AF042
:020000040030CA
:0C000000ECFF3DFF9FFFFFDFFFFFFFFF55
:00000001FF
