:04000000FEEFFFF020
:10100000004D6963726F62696F732032303236004F
:10101000486F6C6120766572616E6F6E004144436B
:10102000205241303A0044433A0020250000165037
:10103000800B236E165016242A6E15AE22EF08F090
:1010400024EF08F025EF08F02A802A50D8B42BEFBF
:1010500008F02DEF08F041EF08F02A28D8A433EF6C
:1010600008F035EF08F03DEF08F0000E136E000EAB
:10107000146E000E156E000E166E158E166A49EF70
:1010800008F0000E136E000E146E000E156E000EAA
:10109000166E1A50800B231A1A501A242B6E19AE92
:1010A00054EF08F056EF08F057EF08F02B802B5064
:1010B000D8B45DEF08F05FEF08F073EF08F02B286D
:1010C000D8A465EF08F067EF08F06FEF08F0000EA6
:1010D000176E000E186E000E196E000E1A6E198E25
:1010E0001A6A7BEF08F0000E176E000E186E000EE5
:1010F000196E000E1A6E1750181019101A10D8A475
:1011000084EF08F086EF08F09EEF08F0000E136EF3
:10111000000E146E000E156E000E166E800E151267
:101120007F0E16122350161213C013F014C014F0C1
:1011300015C015F016C016F0DDEF09F02A50D8A43E
:10114000A4EF08F0A6EF08F0B0EF08F0000E136E61
:10115000000E146E000E156E000E166EDDEF09F017
:101160002B502AC01BF01C6A1B5E000E1C5A7F0EFF
:101170001B24246E000E1C20256E13C01FF014C00B
:1011800020F015C021F016C022F0000E136E000EE4
:10119000146E000E156E000E166E000E266E000EFA
:1011A000276E000E286E000E296E2B6A10EF09F0D4
:1011B0002B50D8B4DEEF08F0E0EF08F0F7EF08F0BE
:1011C000D8901F36203621362236D8901336143662
:1011D0001536163629AEEFEF08F0F1EF08F0F2EF12
:1011E00008F01380D890263627362836293617502F
:1011F0001F5C18502058195021581A502258D8A056
:1012000004EF09F006EF09F00FEF09F0298C1750F1
:101210001F5E1850205A1950215A1A50225A2B2A50
:10122000190E2B6416EF09F018EF09F0D8EF08F04B
:101230001F50201021102210D8B421EF09F023EF05
:1012400009F03BEF09F026803BEF09F0D890133608
:1012500014361536163629AE30EF09F032EF09F0A4
:1012600033EF09F01380D8902636273628362936F2
:101270002406D8A0250615AE40EF09F042EF09F08C
:1012800026EF09F02B6A29AE48EF09F04AEF09F082
:101290006EEF09F0FF0E26141B6EFF0E27141C6E56
:1012A000FF0E28141D6E7F0E29141E6E1B501C107D
:1012B0001D101E10D8B45FEF09F061EF09F065EF63
:1012C00009F0010E2B6E6EEF09F013A06AEF09F022
:1012D0006CEF09F06EEF09F061EF09F02B50D8B414
:1012E00074EF09F076EF09F09AEF09F0010E13267A
:1012F000000E14221522162216A081EF09F083EFAA
:1013000009F09AEF09F013C01BF014C01CF015C0CF
:101310001DF016C01EF01E341E321D321C321B3250
:101320001BC013F01CC014F01DC015F01EC016F039
:10133000244A252A25BEA5EF09F0255008E12428D6
:10134000D8A0A5EF09F0A7EF09F0B2EF09F0000E61
:10135000256E2468000E136E000E146E000E156EBE
:10136000000E166E25BEBFEF09F0255006E12404DD
:10137000D8B0BDEF09F0BFEF09F0CBEF09F0256A57
:10138000000E246E000E136E000E146E000E156E0D
:10139000000E166E236A24C02AF02AA0D2EF09F0AC
:1013A000D4EF09F0D7EF09F0158ED8EF09F0159EAC
:1013B000D8902A30166E92EF08F012000D6E0D5084
:1013C000D8B4E5EF09F0E7EF09F009EF0AF008BE3D
:1013D000EEEF09F0ECEF09F009EF0AF005C009F0B3
:1013E00006C00AF007C00BF008C00CF0091E0A1E68
:1013F0000B1E0C1E092A000E0A220B220C2209C009
:101400000FF00AC010F00BC011F00CC012F011EF79
:101410000AF005C00FF006C010F007C011F008C0B8
:1014200012F00550061007100810D8A41AEF0AF0A1
:101430001CEF0AF026EF0AF0000E056E000E066E95
:10144000000E076E000E086EB7EF0AF0960E0E6ED5
:1014500030EF0AF00E2AD8901232113210320F32C9
:10146000000E0F14096E000E10140A6E000E1114F7
:101470000B6EFE0E12140C6E09500A100B100C109D
:10148000D8A445EF0AF047EF0AF02AEF0AF055EF2B
:101490000AF00E2A010E0F26000E1022112212222F
:1014A000D8901232113210320F32000E0F14096E22
:1014B000000E10140A6E000E11140B6EFF0E1214A3
:1014C0000C6E09500A100B100C10D8A46AEF0AF029
:1014D0006CEF0AF049EF0AF074EF0AF00E06D890AC
:1014E0000F3610361136123611BE79EF0AF07BEF47
:1014F0000AF083EF0AF0020E0E6081EF0AF083EF2C
:101500000AF06EEF0AF00EB088EF0AF08AEF0AF0E8
:101510008BEF0AF0119ED8900E320EC009F00A6AC5
:101520000B6A0C6A09C00CF00B6A0A6A096A095056
:101530000F120A5010120B5011120C5012120D50B3
:10154000D8B4A5EF0AF0A7EF0AF0AFEF0AF008BE93
:10155000AEEF0AF0ACEF0AF0AFEF0AF0128E0FC058
:1015600005F010C006F011C007F012C008F012001C
:1015700036C006F037C007F0270E096E100E086E51
:10158000D5EC0CF00650396E270E046E100E036E6B
:1015900036C001F037C002F047EC0DF001C006F094
:1015A00002C007F0030E096EE80E086ED5EC0CF0D1
:1015B00006503A6E030E046EE80E036E36C001F05C
:1015C00037C002F047EC0DF001C006F002C007F092
:1015D000096A640E086ED5EC0CF006503B6E046A86
:1015E000640E036E36C001F037C002F047EC0DF018
:1015F00001C006F002C007F0096A0A0E086ED5ECB9
:101600000CF006503C6E36C001F037C002F0046AA0
:101610000A0E036E47EC0DF001503D6E56EF0BF0D5
:101620003D50300F37EC0EF06DEF0BF03C50300FAB
:1016300037EC0EF03D50300F37EC0EF06DEF0BF045
:101640003B50300F37EC0EF03C50300F37EC0EF0C3
:101650003D50300F37EC0EF06DEF0BF03A50300F7D
:1016600037EC0EF03B50300F37EC0EF03C50300FA3
:1016700037EC0EF03D50300F37EC0EF06DEF0BF005
:101680003950300F37EC0EF03A50300F37EC0EF087
:101690003B50300F37EC0EF03C50300F37EC0EF073
:1016A0003D50300F37EC0EF06DEF0BF03850010A63
:1016B000D8B410EF0BF0030AD8B416EF0BF0010A00
:1016C000D8B420EF0BF0070AD8B42EEF0BF0010AC4
:1016D000D8B440EF0BF06DEF0BF01200A3EC0DF05F
:1016E000010E046E010E9AEC0CF0100E046EC4ECA8
:1016F0000DF0000E046E020E9AEC0CF0010E046E5A
:10170000C4EC0DF07A0E3F6EC10E3E6E820EE82ED6
:10171000FED73E2EFCD73F2EFAD792EC0EF0000EED
:10172000046E010E9AEC0CF01D0E046EC4EC0DF06C
:1017300068EC0EF001C036F002C037F0050E386ECE
:10174000B8EC0AF0000E046E020E9AEC0CF0260EB5
:10175000046EC4EC0DF0F80E176E530E186E250EC5
:10176000196E410E1A6E68EC0EF001C005F002C051
:1017700006F0076A086A000EDEEC09F005C013F0F7
:1017800006C014F007C015F008C016F017EC08F0FA
:1017900013C02CF014C02DF015C02EF016C02FF081
:1017A00017EC0CF02CC036F02DC037F0030E386E5D
:1017B000B8EC0AF02A0E046EC4EC0DF0000E176EA1
:1017C000000E186E840E196E410E1A6E68EC0EF043
:1017D00001C005F002C006F0076A086A000EDEECE0
:1017E00009F005C013F006C014F007C015F008C0DA
:1017F00016F017EC08F013C02CF014C02DF015C033
:101800002EF016C02FF017EC0CF02C50AA6E050E1F
:101810003F6E0F0E3E6EF10EE82EFED73E2EFCD729
:101820003F2EFAD700008FEF0BF0FEEFFFF02E34C3
:101830002F34356E3550D8A420EF0CF022EF0CF089
:101840002CEF0CF0000E2C6E000E2D6E000E2E6E86
:10185000000E2F6E99EF0CF02CC030F02DC031F03F
:101860002EC032F02FC033F0200E3CEF0CF0D89099
:101870003332323231323032E82E37EF0CF0305022
:10188000346E2E8EFF0E2C16FF0E2D16FF0E2E160A
:10189000000E2F16960E355E35BE53EF0CF051EF4D
:1018A0000CF069EF0CF03550800A970FD8B05BEF61
:1018B0000CF05DEF0CF05FEF0CF022EF0CF0D89025
:1018C0002F322E322D322C32353E5FEF0CF081EF6D
:1018D0000CF01F0E35646FEF0CF071EF0CF079EF28
:1018E0000CF022EF0CF0D8902C362D362E362F36F9
:1018F00035063550D8A47FEF0CF081EF0CF073EF74
:101900000CF03450D8B487EF0CF089EF0CF091EF65
:101910000CF02F1E2E1E2D1E2C6C000E2D222E22A2
:101920002F222CC02CF02DC02DF02EC02EF02FC059
:101930002FF01200056E0504D8A4A1EF0CF0A3EF60
:101940000CF0A9EF0CF00450800F1EEC0EF0D4EF59
:101950000CF0020E0518D8A4B0EF0CF0B2EF0CF0AA
:10196000B8EF0CF00450C00F1EEC0EF0D4EF0CF0EA
:10197000030E0518D8A4BFEF0CF0C1EF0CF0C7EFB1
:101980000CF00450940F1EEC0EF0D4EF0CF0040E8B
:101990000518D8A4CEEF0CF0D0EF0CF0D4EF0CF07B
:1019A0000450D40F1EEC0EF012000B6A000E0A6EEB
:1019B00008500910D8B4DFEF0CF0E1EF0CF009EF9C
:1019C0000DF0010E0C6EE9EF0CF0D89008360936D8
:1019D0000C2A09AEEEEF0CF0F0EF0CF0E5EF0CF096
:1019E000D8900A360B360850065C09500758D8A024
:1019F000FCEF0CF0FEEF0CF003EF0DF00850065E6C
:101A00000950075A0A80D890093208320C2EF0EF9C
:101A10000CF00AC006F00BC007F01200F80E8A6E38
:101A2000859085828584A00E00D0E82EFDD78FCFCB
:101A300001F08594A00E00D0E82EFDD78584A00E7D
:101A400000D0E82EFDD785940150800B016E3DEF4C
:101A50000DF08584A00E00D0E82EFDD78FCF01F0C9
:101A60008594A00E00D0E82EFDD78584A00E00D06E
:101A7000E82EFDD7859424EF0DF0800E0118D8B420
:101A800044EF0DF046EF0DF029EF0DF0120003507A
:101A90000410D8B44EEF0DF050EF0DF074EF0DF0D0
:101AA000010E056E58EF0DF0D89003360436052A66
:101AB00004AE5DEF0DF05FEF0DF054EF0DF003504D
:101AC000015C04500258D8A068EF0DF06AEF0DF0E9
:101AD0006EEF0DF00350015E0450025AD8900432AC
:101AE0000332052E5FEF0DF001C001F002C002F0DD
:101AF000120085908592300E7BEC0EF0150E046E70
:101B0000C60EE82EFED7042EFCD700D0300E7BEC9C
:101B10000EF0A00E00D0E82EFDD7300E7BEC0EF0BC
:101B2000200E7BEC0EF0010E1EEC0EF0280E1EECCB
:101B30000EF00F0E1EEC0EF0060E1EEC0EF0010E57
:101B40001EEC0EF01200600E0E01D36F060ED96F60
:101B5000400ED76F87800F010C81899A1C9B5B8593
:101B60005B895A6B5B8F3E0EBB6E050E0E01F76FE5
:101B70009C0EAB6E1F0EAA6EA96A010EBE6EC00E41
:101B8000BC6EE5EC0DF0120004C001F002EC0EF0AA
:101B90000150066E076ADBEF0DF004500724056E56
:101BA00005C0F6FF100EF76E000EF86E0800F55037
:101BB00037EC0EF0072A0650075CD8A0E2EF0DF0D4
:101BC000E4EF0DF0CDEF0DF012008A6A0F01216BEA
:101BD0009C0E056ED70EE82EFED7052EFCD7000012
:101BE00079EC0DF09C0E056ED70EE82EFED7052E73
:101BF000FCD7000092EC0EF08EEC0EF0010E50ECD3
:101C00000EF0120001C003F007EF0EF0012A01C030
:101C1000F6FF100EF76E000EF86E0800F550000982
:101C2000D8A415EF0EF017EF0EF006EF0EF00350EC
:101C3000015C016E026A01BE02061200026E85900E
:101C40000EEC0DF08A6AA00E00D0E82EFDD785922A
:101C5000859485900250F00B036E03507BEC0EF0E0
:101C60000238F00B036E03507BEC0EF01200026E94
:101C700085800EEC0DF08A6AA00E00D0E82EFDD70C
:101C80008592859485800250F00B036E03507BECA7
:101C90000EF00238F00B036E03507BEC0EF01200D6
:101CA000046E0450D8A457EF0EF059EF0EF05CEF1D
:101CB0000EF00E0E1EEC0EF00404D8A462EF0EF02F
:101CC00064EF0EF067EF0EF00C0E1EEC0EF012003B
:101CD0000F015B815BB16FEF0EF071EF0EF06AEFF9
:101CE0000EF05F51046E036A5E510324016E000E14
:101CF0000420026E1200016E0F0E8516F00E011602
:101D0000015085128584A00E00D0E82EFDD7859461
:101D10001200416A406A00016EEF0BF0020E1EECE9
:0C1D20000EF01200010E1EEC0EF012007E
:020000040001F9
:04FFFC0089EF0EF08B
:020000040030CA
:0C000000ECFF3DFF9FFFFFDFFFFFFFFF55
:00000001FF
