:04000000FEEFFFF020
:1010000000486F6C6120766572616E6F0000056E3E
:101010000504D8A40EEF08F010EF08F016EF08F062
:101020000450800FE8EC08F041EF08F0020E0518BC
:10103000D8A41DEF08F01FEF08F025EF08F00450CA
:10104000C00FE8EC08F041EF08F0030E0518D8A433
:101050002CEF08F02EEF08F034EF08F00450940F56
:10106000E8EC08F041EF08F0040E0518D8A43BEFB7
:1010700008F03DEF08F041EF08F00450D40FE8EC21
:1010800008F0120085908592300E21EC09F0060ED2
:10109000046E300EE82EFED7042EFCD700D0300EA2
:1010A00021EC09F0640EE82EFED7300E21EC09F099
:1010B000200E21EC09F0010EE8EC08F0280EE8EC17
:1010C00008F00F0EE8EC08F0060EE8EC08F0010E50
:1010D000E8EC08F01200030E066E8A0E056E560E3E
:1010E000E82EFED7052EFCD7062EFAD78A6A0F0106
:1010F000216B270E056EF50EE82EFED7052EFCD7C8
:10110000000042EC08F0270E056EF50EE82EFED723
:10111000052EFCD700003CEC09F038EC09F0010E7C
:10112000D0EC08F0120004C001F0B4EC08F001505B
:10113000066E076AAAEF08F004500724056E05C082
:10114000F6FF100EF76E000EF86E0800F550FDEC7D
:1011500008F0072A0650075CD8A0B1EF08F0B3EFFB
:1011600008F09CEF08F0120001C003F0B9EF08F09E
:10117000012A01C0F6FF100EF76E000EF86E08008F
:10118000F5500009D8A4C7EF08F0C9EF08F0B8EF90
:1011900008F00350015C016E026A01BE02061200F3
:1011A000046E0450D8A4D7EF08F0D9EF08F0DCEFB4
:1011B00008F00E0EE8EC08F00404D8A4E2EF08F002
:1011C000E4EF08F0E7EF08F00C0EE8EC08F012008E
:1011D000026E8590640EE82EFED7859285948590E8
:1011E0000250F00B036E035021EC09F00238F00BB3
:1011F000036E035021EC09F01200026E8580640E2C
:10120000E82EFED78592859485800250F00B036E00
:10121000035021EC09F00238F00B036E035021EC6F
:1012200009F012002EEC09F0000E046E010E07EC1E
:1012300008F0010E046E93EC08F01DEF09F0FEEFCC
:10124000FFF0016E0F0E8516F00E0116015085128B
:101250008584640EE82EFED785941200600E0E0180
:10126000D36F020ED96F400ED76F6BEC08F01200EF
:10127000020EE8EC08F01200010EE8EC08F0120093
:06128000000112EF09F06D
:020000040001F9
:04FFFC0040EF09F0D9
:020000040030CA
:0C000000ECFF3DFF9FFFFFDFFFFFFFFF55
:00000001FF
