:04000000FEEFFFF020
:101000000053656D616E6120352D322032303236ED
:101010003000486F742053756D6D657220555043D4
:1010200000484F4C4120555043494E4F0000056E3B
:101030000504D8A41EEF08F020EF08F026EF08F012
:101040000450800F5EEC09F051EF08F0020E051815
:10105000D8A42DEF08F02FEF08F035EF08F004507A
:10106000C00F5EEC09F051EF08F0030E0518D8A48C
:101070003CEF08F03EEF08F044EF08F00450940F06
:101080005EEC09F051EF08F0040E0518D8A44BEF00
:1010900008F04DEF08F051EF08F00450D40F5EEC6B
:1010A00009F01200F80E8A6E849084828484A00E67
:1010B00000D0E82EFDD78FCF01F08494A00E00D091
:1010C000E82EFDD78484A00E00D0E82EFDD78494AE
:1010D0000150800B016E81EF08F08484A00E00D0D7
:1010E000E82EFDD78FCF01F08494A00E00D0E82E1B
:1010F000FDD78484A00E00D0E82EFDD7849468EF3D
:1011000008F0800E0118D8B488EF08F08AEF08F0D4
:101110006DEF08F01200B8EC09F0000E046E010E3D
:1011200017EC08F0010E046E21EC09F0000E046EBD
:10113000020E17EC08F0120E046E21EC09F0210EDD
:10114000046E00EC09F0E1EC09F0290E096E960E30
:10115000086E7F0EE82EFED7082EFCD7092EFAD790
:1011600000009FEF08F0FEEFFFF084908492300EB5
:10117000C7EC09F0150E046EC60EE82EFED7042E3D
:10118000FCD700D0300EC7EC09F0A00E00D0E82E3E
:10119000FDD7300EC7EC09F0200EC7EC09F0010EA8
:1011A0005EEC09F0280E5EEC09F00F0E5EEC09F023
:1011B000060E5EEC09F0010E5EEC09F012008A6A80
:1011C0000F01216BF80E896EF80E1C6F9C0E056ED8
:1011D000D70EE82EFED7052EFCD70000B5EC08F0A0
:1011E0009C0E056ED70EE82EFED7052EFCD700000C
:1011F000ECEC09F0E8EC09F0010E90EC09F01200BB
:1012000004C001F042EC09F00150066E076A17EFC6
:1012100009F004500724056E05C0F6FF100EF76EA6
:10122000000EF86E0800F550D5EC09F0072A0650BC
:10123000075CD8A01EEF09F020EF09F009EF09F0D4
:10124000120004C001F042EC09F00150066E076A7A
:1012500038EF09F004500724056E05C0F6FF100EA4
:10126000F76E000EF86E0800F55077EC09F0072ACB
:101270000650075CD8A03FEF09F041EF09F02AEFD4
:1012800009F0120001C003F047EF09F0012A01C084
:10129000F6FF100EF76E000EF86E0800F55000090C
:1012A000D8A455EF09F057EF09F046EF09F00350C5
:1012B000015C016E026A01BE02061200026E849099
:1012C00052EC08F08A6AA00E00D0E82EFDD7849276
:1012D000849484900250F00B036E0350C7EC09F025
:1012E0000238F00B036E0350C7EC09F01200026ED7
:1012F000848052EC08F08A6AA00E00D0E82EFDD758
:101300008492849484800250F00B036E0350C7ECE7
:1013100009F00238F00B036E0350C7EC09F012001D
:10132000046E0450D8A497EF09F099EF09F09CEFF0
:1013300009F00E0E5EEC09F00404D8A4A2EF09F047
:10134000A4EF09F0A7EF09F00C0E5EEC09F0120013
:101350000E019A97976B330E966F8A900F01219129
:101360000B0E0E01FA6F9999988F998BC89D1200F8
:10137000600E0E01D36F060ED96F400ED76FDFECF3
:1013800008F0026ACF0E016EA8EC09F01200016E9F
:101390000F0E8516F00E0116015085128484A00EE2
:1013A00000D0E82EFDD784941200016E01C095FE96
:1013B0000E0199A3DEEF09F0E0EF09F0D8EF09F094
:1013C00012000A0ED5EC09F00D0ED5EC09F0120052
:1013D000020E5EEC09F01200010E5EEC09F0120044
:0613E00000018BEF08F094
:020000040001F9
:04FFFC00F0EF09F029
:020000040030CA
:0C000000ECFF3DFF9FFFFFDFFFFFFFFF55
:00000001FF
