:04000000FEEFFFF020
:101000000053656D616E6120352D322032303236ED
:101010003000486F742053756D6D657220555043D4
:1010200000484F4C4120555043494E4F0048756D84
:0F10300065643A0054656D703A0025524800001F
:101040000DC006F00EC007F0270E096E100E086ED8
:101050001FEC0CF00650116E270E046E100E036E7E
:101060000DC001F00EC002F0C8EC0CF001C006F09B
:1010700002C007F0030E096EE80E086E1FEC0CF0BC
:101080000650126E030E046EE80E036E0DC001F0E2
:101090000EC002F0C8EC0CF001C006F002C007F070
:1010A000096A640E086E1FEC0CF00650136E046A99
:1010B000640E036E0DC001F00EC002F0C8EC0CF01F
:1010C00001C006F002C007F0096A0A0E086E1FECA4
:1010D0000CF00650146E0DC001F00EC002F0046A50
:1010E0000A0E036EC8EC0CF00150156ED9EF09F032
:1010F0001550300FBCEC0DF0F0EF09F01050D8A4F3
:1011000084EF08F086EF08F090EF08F01450300FED
:10111000BCEC0DF01550300FBCEC0DF0F0EF09F009
:101120001004D8A496EF08F098EF08F0F0EF09F05B
:101130001450300FBCEC0DF02E0EBCEC0DF0155021
:10114000300FBCEC0DF0F0EF09F01350300FBCEC99
:101150000DF01450300FBCEC0DF01550300FBCECFE
:101160000DF0F0EF09F01350300FBCEC0DF01450FF
:10117000300FBCEC0DF02E0EBCEC0DF01550300F06
:10118000BCEC0DF0F0EF09F01350300FBCEC0DF09B
:101190002E0EBCEC0DF01450300FBCEC0DF01550C1
:1011A000300FBCEC0DF0F0EF09F01050000AD8B48D
:1011B000A5EF08F0010AD8B4B3EF08F0030AD8B4D9
:1011C000C4EF08F0F0EF09F01250300FBCEC0DF056
:1011D0001350300FBCEC0DF01450300FBCEC0DF080
:1011E0001550300FBCEC0DF0F0EF09F01250300F3D
:1011F000BCEC0DF01350300FBCEC0DF01450300F60
:10120000BCEC0DF02E0EBCEC0DF01550300FBCEC0C
:101210000DF0F0EF09F01250300FBCEC0DF0135050
:10122000300FBCEC0DF02E0EBCEC0DF01450300F56
:10123000BCEC0DF01550300FBCEC0DF0F0EF09F0E8
:101240001250300FBCEC0DF02E0EBCEC0DF0135014
:10125000300FBCEC0DF01450300FBCEC0DF01550FD
:10126000300FBCEC0DF0F0EF09F01050000AD8B4CC
:10127000E4EF08F0010AD8B4F6EF08F0030AD8B496
:101280000BEF09F0010AD8B420EF09F0F0EF09F0F4
:101290001150300FBCEC0DF01250300FBCEC0DF0C3
:1012A0001350300FBCEC0DF01450300FBCEC0DF0AF
:1012B0001550300FBCEC0DF0F0EF09F01150300F6D
:1012C000BCEC0DF01250300FBCEC0DF01350300F91
:1012D000BCEC0DF01450300FBCEC0DF02E0EBCEC3D
:1012E0000DF01550300FBCEC0DF0F0EF09F011507F
:1012F000300FBCEC0DF01250300FBCEC0DF0135061
:10130000300FBCEC0DF02E0EBCEC0DF01450300F75
:10131000BCEC0DF01550300FBCEC0DF0F0EF09F007
:101320001150300FBCEC0DF01250300FBCEC0DF032
:101330002E0EBCEC0DF01350300FBCEC0DF0145021
:10134000300FBCEC0DF01550300FBCEC0DF0F0EF91
:1013500009F01150300FBCEC0DF02E0EBCEC0DF06E
:101360001250300FBCEC0DF01350300FBCEC0DF0F0
:101370001450300FBCEC0DF01550300FBCEC0DF0DC
:10138000F0EF09F01050000AD8B448EF09F0010A54
:10139000D8B45EEF09F0030AD8B477EF09F0010A78
:1013A000D8B490EF09F0070AD8B4A9EF09F0F0EF2C
:1013B00009F00F50010AD8B478EF08F0030AD8B446
:1013C0007EEF08F0010AD8B4D5EF08F0070AD8B4C8
:1013D00035EF09F0010AD8B4C2EF09F0F0EF09F0D7
:1013E0001200016E046A0150D8A4F9EF09F0FBEF76
:1013F00009F03FEF0AF0026A036A00EF0AF0032ADD
:101400008CB005EF0AF007EF0AF00FEF0AF0630E59
:1014100003640DEF0AF00FEF0AF0FFEF09F05D0E25
:10142000E82EFED700008CA018EF0AF01AEF0AF0A1
:101430001EEF0AF0D880043621EF0AF0045004248D
:10144000046E036A25EF0AF0032A8CA02AEF0AF043
:101450002CEF0AF034EF0AF0630E036432EF0AF067
:1014600034EF0AF024EF0AF0022A070E02643BEF81
:101470000AF03DEF0AF0FCEF09F089EF0AF00104F1
:10148000D8A445EF0AF047EF0AF089EF0AF0026AA4
:10149000036A4CEF0AF0032A8CB051EF0AF053EFC5
:1014A0000AF05BEF0AF0630E036459EF0AF05BEF9A
:1014B0000AF04BEF0AF05D0EE82EFED700008CA07C
:1014C00064EF0AF066EF0AF06AEF0AF0D88004369B
:1014D0006DEF0AF004500424046E036A71EF0AF001
:1014E000032A8CA076EF0AF078EF0AF080EF0AF07A
:1014F000630E03647EEF0AF080EF0AF070EF0AF0EB
:10150000022A070E026487EF0AF089EF0AF048EF1B
:101510000AF004501200016E0150D8A492EF0AF0B4
:1015200094EF0AF0D7EF0AF0026A98EF0AF0022A65
:101530008CA09DEF0AF09FEF0AF0A7EF0AF0630E70
:101540000264A5EF0AF0A7EF0AF097EF0AF0D50EB4
:10155000E82EFED70000026AAFEF0AF0022A8CB034
:10156000B4EF0AF0B6EF0AF0BEEF0AF0630E0264C1
:10157000BCEF0AF0BEEF0AF0AEEF0AF0D50EE82E8F
:10158000FED70000026AC6EF0AF0022A8CA0CBEF59
:101590000AF0CDEF0AF020EF0BF0630E0264D3EFF8
:1015A0000AF0D5EF0AF0C5EF0AF020EF0BF00104C6
:1015B000D8A4DDEF0AF0DFEF0AF020EF0BF0026AAB
:1015C000E3EF0AF0022A8CA0E8EF0AF0EAEF0AF053
:1015D000F2EF0AF0630E0264F0EF0AF0F2EF0AF0A5
:1015E000E2EF0AF0D50EE82EFED70000026AFAEF0D
:1015F0000AF0022A8CB0FFEF0AF001EF0BF009EFBE
:101600000BF0630E026407EF0BF009EF0BF0F9EF3C
:101610000AF0D50EE82EFED70000026A11EF0BF09B
:10162000022A8CA016EF0BF018EF0BF020EF0BF056
:10163000630E02641EEF0BF020EF0BF010EF0BF0C7
:101640001200FDEC0DF0000E046E010EE4EC0BF048
:10165000010E046E66EC0DF0000E046E020EE4EC5A
:101660000BF0120E046E66EC0DF07A0E176EC10EC2
:10167000166E820EE82EFED7162EFCD7172EFAD73E
:101680003AEC0EF0010E93EC0BF005C018F006C01A
:1016900019F007C01AF008C01BF0000E046E010E0E
:1016A000E4EC0BF0340E046E66EC0DF018C00DF097
:1016B00019C00EF0030E0F6E010E106E20EC08F034
:1016C0003EEC0EF01F0E046E66EC0DF0000E046E84
:1016D000020EE4EC0BF02D0E046E66EC0DF01AC059
:1016E0000DF01BC00EF0030E0F6E010E106E20ECFD
:1016F00008F03A0E046E66EC0DF0210E046E45EC17
:101700000DF02FEC0EF0290E176E960E166E7F0E52
:10171000E82EFED7162EFCD7172EFAD7000042EF80
:101720000BF0FEEFFFF00F6E0F5091EC0CF00F502E
:101730008BEC0AF00F50F1EC09F00D6E0F50F1EC4C
:1017400009F00B6E0F50F1EC09F00E6E0F50F1EC3A
:1017500009F00C6E0F50F1EC09F00F50D8A4B3EF64
:101760000BF0B5EF0BF0BDEF0BF00EC01CF01D6AD7
:101770000DC01EF01F6ADBEF0BF00F04D8A4C3EFFF
:101780000BF0C5EF0BF0DBEF0BF00C500EC009F0C7
:101790000A6A09C00AF0096A09101C6E0A501D6E17
:1017A0000B500DC009F00A6A09C00AF0096A091055
:1017B0001E6E0A501F6E1CC005F01DC006F01EC034
:1017C00007F01FC008F01200056E0504D8A4EBEF67
:1017D0000BF0EDEF0BF0F3EF0BF00450800FA3ECE8
:1017E0000DF01EEF0CF0020E0518D8A4FAEF0BF066
:1017F000FCEF0BF002EF0CF00450C00FA3EC0DF067
:101800001EEF0CF0030E0518D8A409EF0CF00BEF37
:101810000CF011EF0CF00450940FA3EC0DF01EEF40
:101820000CF0040E0518D8A418EF0CF01AEF0CF009
:101830001EEF0CF00450D40FA3EC0DF012000B6A55
:10184000000E0A6E08500910D8B429EF0CF02BEFE7
:101850000CF053EF0CF0010E0C6E33EF0CF0D8903F
:10186000083609360C2A09AE38EF0CF03AEF0CF0C6
:101870002FEF0CF0D8900A360B360850065C095052
:101880000758D8A046EF0CF048EF0CF04DEF0CF0E5
:101890000850065E0950075A0A80D890093208326B
:1018A0000C2E3AEF0CF00AC006F00BC007F0120045
:1018B000F80E8A6E849084828484A00E00D0E82E74
:1018C000FDD78FCF01F08494A00E00D0E82EFDD775
:1018D0008484A00E00D0E82EFDD784940150800BA4
:1018E000016E87EF0CF08484A00E00D0E82EFDD7A7
:1018F0008FCF01F08494A00E00D0E82EFDD7848411
:10190000A00E00D0E82EFDD784946EEF0CF0800E70
:101910000118D8B48EEF0CF090EF0CF073EF0CF0D0
:101920001200026E0250D8A498EF0CF09AEF0CF05F
:10193000ADEF0CF087900F010C918290BC0E016E00
:10194000020EE82EFED7012EFCD782806A0EE82E0A
:10195000FED700D08780C7EF0CF00204D8A4B3EF05
:101960000CF0B5EF0CF0C7EF0CF087900F010C9165
:1019700082900B0E016E620EE82EFED7012EFCD770
:1019800000D082806A0EE82EFED700D08780120039
:1019900003500410D8B4CFEF0CF0D1EF0CF0F5EFFA
:1019A0000CF0010E056ED9EF0CF0D890033604361A
:1019B000052A04AEDEEF0CF0E0EF0CF0D5EF0CF0F2
:1019C0000350015C04500258D8A0E9EF0CF0EBEF93
:1019D0000CF0EFEF0CF00350015E0450025AD89067
:1019E00004320332052EE0EF0CF001C001F002C01A
:1019F00002F0120084908492300E0CEC0EF0150E62
:101A0000046EC60EE82EFED7042EFCD700D0300E92
:101A10000CEC0EF0A00E00D0E82EFDD7300E0CEC32
:101A20000EF0200E0CEC0EF0010EA3EC0DF0280EC3
:101A3000A3EC0DF00F0EA3EC0DF0060EA3EC0DF0D1
:101A4000010EA3EC0DF012008A6A0F01216BF80E53
:101A5000896EF80E1C6F9C0E056ED70EE82EFED711
:101A6000052EFCD70000FAEC0CF09C0E056ED70E8C
:101A7000E82EFED7052EFCD700003AEC0EF036EC2F
:101A80000EF0010ED5EC0DF0120004C001F087EC51
:101A90000DF00150066E076A5CEF0DF0045007244C
:101AA000056E05C0F6FF100EF76E000EF86E08000A
:101AB000F5501AEC0EF0072A0650075CD8A063EF29
:101AC0000DF065EF0DF04EEF0DF0120004C001F0C7
:101AD00087EC0DF00150066E076A7DEF0DF00450A3
:101AE0000724056E05C0F6FF100EF76E000EF86EA7
:101AF0000800F550BCEC0DF0072A0650075CD8A092
:101B000084EF0DF086EF0DF06FEF0DF0120001C0C5
:101B100003F08CEF0DF0012A01C0F6FF100EF76EF6
:101B2000000EF86E0800F5500009D8A49AEF0DF0E9
:101B30009CEF0DF08BEF0DF00350015C016E026A1B
:101B400001BE02061200026E849058EC0CF08A6A04
:101B5000A00E00D0E82EFDD7849284948490025089
:101B6000F00B036E03500CEC0EF00238F00B036E1A
:101B700003500CEC0EF01200026E848058EC0CF056
:101B80008A6AA00E00D0E82EFDD7849284948480C7
:101B90000250F00B036E03500CEC0EF00238F00B09
:101BA000036E03500CEC0EF01200046E0450D8A427
:101BB000DCEF0DF0DEEF0DF0E1EF0DF00E0EA3EC1B
:101BC0000DF00404D8A4E7EF0DF0E9EF0DF0ECEF11
:101BD0000DF00C0EA3EC0DF012000E019A97976B0E
:101BE000330E966F8A900F0121910B0E0E01FA6F42
:101BF0009999988F998BC89D1200600E0E01D36F32
:101C0000060ED96F400ED76F24EC0DF0026ACF0E8E
:101C1000016EEDEC0DF01200016E0F0E8516F00E48
:101C20000116015085128484A00E00D0E82EFDD745
:101C300084941200016E01C095FE0E0199A323EF5A
:101C40000EF025EF0EF01DEF0EF0120000EE1CF06E
:101C5000080EEE6AE806FDE1000121EF0BF00A0E26
:101C60001AEC0EF00D0E1AEC0EF01200020EA3ECA0
:101C70000DF01200010EA3EC0DF01200DF0EBCEC13
:041C80000DF0120051
:020000040001F9
:04FFFC0026EF0EF0EE
:020000040030CA
:0C000000ECFF3DFF9FFFFFDFFFFFFFFF55
:00000001FF
