:04000000FEEFFFF020
:101000000053656D616E6120352D322032303236ED
:101010003000486F742053756D6D657220555043D4
:101020000000056E0504D8A418EF08F01AEF08F0C8
:1010300020EF08F00450800F0DEC09F04BEF08F0A2
:10104000020E0518D8A427EF08F029EF08F02FEFBB
:1010500008F00450C00F0DEC09F04BEF08F0030E40
:101060000518D8A436EF08F038EF08F03EEF08F086
:101070000450940F0DEC09F04BEF08F0040E051826
:10108000D8A445EF08F047EF08F04BEF08F0045004
:10109000D40F0DEC09F01200F80E8A6E8490848251
:1010A0008484A00E00D0E82EFDD78FCF01F0849469
:1010B000A00E00D0E82EFDD78484A00E00D0E82E2C
:1010C000FDD784940150800B016E7BEF08F084847F
:1010D000A00E00D0E82EFDD78FCF01F08494A00E93
:1010E00000D0E82EFDD78484A00E00D0E82EFDD7D6
:1010F000849462EF08F0800E0118D8B482EF08F0F3
:1011000084EF08F067EF08F0120084908492300EAC
:101110006FEC09F0150E046EC60EE82EFED7042EF5
:10112000FCD700D0300E6FEC09F0A00E00D0E82EF6
:10113000FDD7300E6FEC09F0200E6FEC09F0010EB8
:101140000DEC09F0280E0DEC09F00F0E0DEC09F076
:10115000060E0DEC09F0010E0DEC09F012008A6A82
:101160000F01216BF80E896EF80E1C6F9C0E056E38
:10117000D70EE82EFED7052EFCD7000085EC08F030
:101180009C0E056ED70EE82EFED7052EFCD700006C
:101190008BEC09F087EC09F0010E57EC09F0120016
:1011A00004C001F0F1EC08F00150066E076AE7EFA9
:1011B00008F004500724056E05C0F6FF100EF76E08
:1011C000000EF86E0800F55026EC09F0072A0650CC
:1011D000075CD8A0EEEF08F0F0EF08F0D9EF08F0C8
:1011E000120001C003F0F6EF08F0012A01C0F6FF7B
:1011F000100EF76E000EF86E0800F5500009D8A426
:1012000004EF09F006EF09F0F5EF08F00350015C78
:10121000016E026A01BE02061200026E84904CEC5E
:1012200008F08A6AA00E00D0E82EFDD7849284943C
:1012300084900250F00B036E03506FEC09F00238FB
:10124000F00B036E03506FEC09F01200026E848005
:101250004CEC08F08A6AA00E00D0E82EFDD78492EC
:10126000849484800250F00B036E03506FEC09F0FD
:101270000238F00B036E03506FEC09F012007DECA6
:1012800009F0000E046E010E11EC08F0010E046E60
:10129000D0EC08F0000E046E020E11EC08F0120EF5
:1012A000046ED0EC08F053EF09F0FEEFFFF0046E8F
:1012B0000450D8A45EEF09F060EF09F063EF09F085
:1012C0000E0E0DEC09F00404D8A469EF09F06BEFE1
:1012D00009F06EEF09F00C0E0DEC09F01200016E32
:1012E0000F0E8516F00E0116015085128484A00E93
:1012F00000D0E82EFDD784941200600E0E01D36F4B
:10130000060ED96F400ED76FAFEC08F01200020E38
:101310000DEC09F01200010E0DEC09F012000001B5
:041320003FEF09F0A2
:020000040001F9
:04FFFC008FEF09F08A
:020000040030CA
:0C000000ECFF3DFF9FFFFFDFFFFFFFFF55
:00000001FF
