:0400000024EF00F0F9
:0600080001821FEF08F069
:100018000180D8CF02F0E8CF03F0E0CF04F00E0162
:10002800C5910550D8A403D0010E056E01D0056A0C
:1000380004C0E0FF03C0E8FF02C0D8FF0190100031
:0400480035EF08F098
:101000000000600E0E01D36F020ED96F400ED76F35
:1010100087900F010C91888C149D138D0E0E0E017C
:101020009C6F900ED46EC20ED56EBD8BC59BBD81DC
:10103000C591F290B591F28AF28EF28C12000E01F7
:10104000C59B8CA00BD082900550D8A403D0D36848
:10105000A80E02D0D368DB0ED26E05D08280055078
:10106000D8B4F8D7F4D701921100056A0190019223
:0C10700000013BEF08F001EC08F0FFD796
:020000040030CA
:0C000000ECFF3DFF9FFFFFDFFFFFFFFF55
:00000001FF
