:020000000CD022
:10001A000E01600ED36F020ED96F500ED76F0F010B
:10002A0087810C910B81888114911381800E896FCD
:10003A001C6FF00E8A6F216F856B8B912991F86B7B
:10004A00F76BF00EF66F0900F5CF84FF858145EC5A
:10005A0000F085910900F5CF84FF858345EC00F017
:10006A0085930900F5CF84FF858545EC00F08595D9
:10007A000800F5CF84FF858745EC00F08597E1D726
:0A008A00000000000000000012005A
:0400F0003830157718
:020000040030CA
:0C000000FFFF3DFF9FFFFFFFFFFFFFFF22
:00000001FF
