:040000003DEF00F0E0
:1000080001820E01CB91630E1018D8A40EEF00F0F8
:1000180010EF00F03AEF00F0106A3B0E1118D8A468
:1000280018EF00F01AEF00F037EF00F0116A3B0EFE
:100038001218D8A422EF00F024EF00F034EF00F0FB
:10004800126A170E1318D8A42CEF00F02EEF00F048
:1000580031EF00F0136A3BEF00F0132A3BEF00F09A
:10006800122A3BEF00F0112A3BEF00F0102A019210
:06007800110072EF0AF016
:0F10000000486F72612061637475616C3A000083
:10101000020E056E010E39EC09F0010E0C6E0C0E7D
:101020000D6EF4EC09F0020E056E020E39EC09F0BB
:1010300013C002F0036A056A0A0E046E82EC08F01F
:101040000250300F10EC0AF013C002F0036A056A78
:101050000A0E046EE2EC08F00250300F10EC0AF0B9
:101060003A0E10EC0AF012C002F0036A056A0A0E8A
:10107000046E82EC08F00250300F10EC0AF012C03F
:1010800002F0036A056A0A0E046EE2EC08F00250F0
:10109000300F10EC0AF03A0E10EC0AF011C002F01A
:1010A000036A056A0A0E046E82EC08F00250300FE3
:1010B00010EC0AF011C002F0036A056A0A0E046E11
:1010C000E2EC08F00250300F10EC0AF03A0E10EC8F
:1010D0000AF010C002F0036A056A0A0E046E82EC80
:1010E00008F00250300F10EC0AF010C002F0036A52
:1010F000056A0A0E046EE2EC08F00250300F10ECA4
:101100000AF01200076A05BE8AEF08F088EF08F0BF
:1011100090EF08F0046C051ED8B0052A010E076E8A
:1011200003BE97EF08F095EF08F09DEF08F0026C12
:10113000031ED8B0032A010E071A096A000E086EB2
:1011400004500510D8B4A7EF08F0A9EF08F0D1EFCC
:1011500008F0010E066EB1EF08F0D890043605369F
:10116000062A05AEB6EF08F0B8EF08F0ADEF08F0CC
:10117000D890083609360450025C05500358D8A0B0
:10118000C4EF08F0C6EF08F0CBEF08F00450025EA1
:101190000550035A0880D89005320432062EB8EF65
:1011A00008F00750D8B4D7EF08F0D9EF08F0DDEF1A
:1011B00008F0086C091ED8B0092A08C002F009C05E
:1011C00003F01200076A03BEEAEF08F0E8EF08F048
:1011D000F0EF08F0026C031ED8B0032A010E076E70
:1011E00005BEF7EF08F0F5EF08F0FBEF08F0046C30
:1011F000051ED8B0052A04500510D8B402EF09F036
:1012000004EF09F028EF09F0010E066E0CEF09F06B
:10121000D89004360536062A05AE11EF09F013EF13
:1012200009F008EF09F00450025C05500358D8A0FB
:101230001CEF09F01EEF09F022EF09F00450025EE6
:101240000550035AD89005320432062E13EF09F0E8
:101250000750D8B42EEF09F030EF09F034EF09F061
:10126000026C031ED8B0032A02C002F003C003F0D0
:101270001200066E0604D8A440EF09F042EF09F010
:1012800048EF09F00550800F29EC0AF073EF09F0E0
:10129000020E0618D8A44FEF09F051EF09F057EFEE
:1012A00009F00550C00F29EC0AF073EF09F0030EA6
:1012B0000618D8A45EEF09F060EF09F066EF09F0B8
:1012C0000550940F29EC0AF073EF09F0040E06188C
:1012D000D8A46DEF09F06FEF09F073EF09F0055036
:1012E000D40F29EC0AF01200F80E8A6E85908582E0
:1012F0008584A00E00D0E82EFDD78FCF02F0859414
:10130000A00E00D0E82EFDD78584A00E00D0E82ED8
:10131000FDD785940250800B026EA3EF09F08584FF
:10132000A00E00D0E82EFDD78FCF02F08594A00E3E
:1013300000D0E82EFDD78584A00E00D0E82EFDD782
:1013400085948AEF09F0800E0218D8B4AAEF09F04C
:10135000ACEF09F08FEF09F0120085908592300E06
:1013600085EC0AF0150E056EC60EE82EFED7052E8A
:10137000FCD700D0300E85EC0AF0A00E00D0E82E8D
:10138000FDD7300E85EC0AF0200E85EC0AF0010E38
:1013900029EC0AF0280E29EC0AF00F0E29EC0AF0CD
:1013A000060E29EC0AF0010E29EC0AF012008A6AF6
:1013B0000F01216B9C0E066ED70EE82EFED7062E6F
:1013C000FCD70000ADEC09F09C0E066ED70EE82E9F
:1013D000FED7062EFCD700009FEC0AF09BEC0AF02B
:1013E000010E5AEC0AF012000F6A0F6A06EF0AF0BB
:1013F0000C500F240E6E0EC0F6FF100EF76E000E8E
:10140000F86E0800F55010EC0AF00F2A0D500F5C32
:10141000D8A00DEF0AF00FEF0AF0F8EF09F0120074
:101420000A6E858074EC09F08A6AA00E00D0E82E5E
:10143000FDD78592859485800A50F00B0B6E0B507A
:1014400085EC0AF00A38F00B0B6E0B5085EC0AF0B5
:101450001200036E859074EC09F08A6AA00E00D029
:10146000E82EFDD78592859485900350F00B046E8D
:10147000045085EC0AF00338F00B046E045085EC40
:101480000AF01200600E0E01D36F060ED96F400EE7
:10149000D76F010ED16E330ECE6E8B0EAB6E270E54
:1014A000AA6E100EA96EC381CB91F28CF28ED7EC8E
:1014B00009F01200056E0550D8A461EF0AF063EF41
:1014C0000AF066EF0AF00E0E29EC0AF00504D8A423
:1014D0006CEF0AF06EEF0AF071EF0AF00C0E29ECD7
:1014E0000AF01200460EF66E150EF76E000EF86E3C
:1014F0000900F5CF12F00900F5CF13F0116A106A58
:1015000001900192000193EF0AF0026E0F0E851612
:10151000F00E0216025085128584A00E00D0E82E2F
:10152000FDD78594120042EC0AF008EC08F095EF24
:101530000AF03DEF00F0020E29EC0AF01200010E55
:0815400029EC0AF012000F155E
:020000040030CA
:0C000000ECFF3DFF9FFFFFDFFFFFFFFF55
:00000001FF
