:04000000FEEFFFF020
:101000000053756D6D657220323032362D300044DC
:0B1010004143203D2073696E65000025
:10101C00276E2704D8A415EF08F017EF08F01DEF82
:10102C0008F02650800F3BEC09F048EF08F0020E58
:10103C002718D8A424EF08F026EF08F02CEF08F0BE
:10104C002650C00F3BEC09F048EF08F0030E2718B0
:10105C00D8A433EF08F035EF08F03BEF08F026503A
:10106C00940F3BEC09F048EF08F0040E2718D8A4B5
:10107C0042EF08F044EF08F048EF08F02650D40F88
:10108C003BEC09F01200F80E8A6E859085828584FF
:10109C00A00E00D0E82EFDD78FCF23F08594A00EA4
:1010AC0000D0E82EFDD78584A00E00D0E82EFDD709
:1010BC0085942350800B236E78EF08F08584A00E66
:1010CC0000D0E82EFDD78FCF23F08594A00E00D052
:1010DC00E82EFDD78584A00E00D0E82EFDD7859490
:1010EC005FEF08F0800E2318D8B47FEF08F081EF83
:1010FC0008F064EF08F01200A9EC09F0000E266E5F
:10110C00010E0EEC08F0010E266EE1EC08F0000E5C
:10111C00266E020E0EEC08F00F0E266EE1EC08F0B7
:10112C002C6A2C50010FD96EDA6ADF500F012F6F29
:10113C00020E2B6E380E2A6EAD0EE82EFED72A2E1E
:10114C00FCD72B2EFAD700002C2A1F0E2C64B1EFE3
:10115C0008F0B3EF08F097EF08F096EF08F0FEEF09
:10116C00FFF085908592300EB8EC09F0150E266EC6
:10117C00C60EE82EFED7262EFCD700D0300EB8ECCB
:10118C0009F0A00E00D0E82EFDD7300EB8EC09F017
:10119C00200EB8EC09F0010E3BEC09F0280E3BECEC
:1011AC0009F00F0E3BEC09F0060E3BEC09F0010EBA
:1011BC003BEC09F0120026C023F01FEC09F0235081
:1011CC00286E296AF8EF08F026502924276E27C0CC
:1011DC00F6FF100EF76E000EF86E0800F55054EC8A
:1011EC0009F0292A2850295CD8A0FFEF08F001EF5C
:1011FC0009F0EAEF08F012008A6A0F01216B9C0ECD
:10120C00276ED70EE82EFED7272EFCD70000B7ECA2
:10121C0008F09C0E276ED70EE82EFED7272EFCD793
:10122C000000CAEC09F0C6EC09F0010E6DEC09F0F7
:10123C00120023C025F024EF09F0232A23C0F6FF67
:10124C00100EF76E000EF86E0800F5500009D8A4C9
:10125C0032EF09F034EF09F023EF09F02550235C4D
:10126C00236E246A23BE24061200246E859049EC5A
:10127C0008F08A6AA00E00D0E82EFDD785928594DE
:10128C0085902450F00B256E2550B8EC09F02438CD
:10129C00F00B256E2550B8EC09F01200246E8580F9
:1012AC0049EC08F08A6AA00E00D0E82EFDD7859292
:1012BC00859485802450F00B256E2550B8EC09F0F0
:1012CC002438F00B256E2550B8EC09F01200266E70
:1012DC002650D8A474EF09F076EF09F079EF09F0F5
:1012EC000E0E3BEC09F02604D8A47FEF09F081EF39
:1012FC0009F084EF09F00C0E3BEC09F01200300EF3
:10130C00F66E130EF76E000EF86E00EE01F010EE96
:10131C0022F00900F5CFEEFFE550E150FAE10001B3
:10132C0082EF08F0101316191B1D1E1F1F1F1E1D08
:10133C001B191613100D0A0705030201000000010A
:10134C00020305070A0D600E0E01D36F060ED96F4E
:10135C00400ED76F900E0F012E6F100E2F6F02ECF8
:10136C0009F01200236E0F0E8516F00E2316235073
:10137C0085128584A00E00D0E82EFDD7859412002E
:10138C00020E3BEC09F01200010E3BEC09F01200CE
:020000040001F9
:04FFFC0085EF09F094
:020000040030CA
:0C000000ECFF3DFF9FFFFFDFFFFFFFFF55
:00000001FF
