:04000000FEEFFFF020
:101000000053756D6D657220323032362D300044DC
:0B1010004143203D20322E35560000E9
:10101C00056E0504D8A415EF08F017EF08F01DEFC6
:10102C0008F00450800F06EC09F048EF08F0020EAF
:10103C000518D8A424EF08F026EF08F02CEF08F0E0
:10104C000450C00F06EC09F048EF08F0030E051829
:10105C00D8A433EF08F035EF08F03BEF08F004505C
:10106C00940F06EC09F048EF08F0040E0518D8A40C
:10107C0042EF08F044EF08F048EF08F00450D40FAA
:10108C0006EC09F01200F80E8A6E85908582858434
:10109C00A00E00D0E82EFDD78FCF01F08594A00EC6
:1010AC0000D0E82EFDD78584A00E00D0E82EFDD709
:1010BC0085940150800B016E78EF08F08584A00EAA
:1010CC0000D0E82EFDD78FCF01F08594A00E00D074
:1010DC00E82EFDD78584A00E00D0E82EFDD7859490
:1010EC005FEF08F0800E0118D8B47FEF08F081EFA5
:1010FC0008F064EF08F0120085908592300E77ECC2
:10110C0009F0150E046EC60EE82EFED7042EFCD781
:10111C0000D0300E77EC09F0A00E00D0E82EFDD7F1
:10112C00300E77EC09F0200E77EC09F0010E06EC8E
:10113C0009F0280E06EC09F00F0E06EC09F0060E6D
:10114C0006EC09F0010E06EC09F0120004C001F0E7
:10115C00EAEC08F00150066E076AC3EF08F0045081
:10116C000724056E05C0F6FF100EF76E000EF86E24
:10117C000800F5501FEC09F0072A0650075CD8A0B0
:10118C00CAEF08F0CCEF08F0B5EF08F012008A6A4D
:10119C000F01216B9C0E056ED70EE82EFED7052E87
:1011AC00FCD7000082EC08F09C0E056ED70EE82EE2
:1011BC00FED7052EFCD7000089EC09F085EC09F070
:1011CC00010E50EC09F0120001C003F0EFEF08F033
:1011DC00012A01C0F6FF100EF76E000EF86E080023
:1011EC00F5500009D8A4FDEF08F0FFEF08F0EEEF82
:1011FC0008F00350015C016E026A01BE0206120087
:10120C00026E859049EC08F08A6AA00E00D0E82E98
:10121C00FDD78592859485900250F00B036E035098
:10122C0077EC09F00238F00B036E035077EC09F001
:10123C001200026E858049EC08F08A6AA00E00D07C
:10124C00E82EFDD78592859485800250F00B036EB5
:10125C00035077EC09F00238F00B036E035077EC77
:10126C0009F0120068EC09F0000E046E010E0EEC91
:10127C0008F0010E046EACEC08F0000E046E020EC9
:10128C000EEC08F00F0E046EACEC08F04CEF09F00D
:10129C00FEEFFFF0046E0450D8A457EF09F059EF9D
:1012AC0009F05CEF09F00E0E06EC09F00404D8A46A
:1012BC0062EF09F064EF09F067EF09F00C0E06EC31
:1012CC0009F01200600E0E01D36F060ED96F400E9E
:1012DC00D76F900E0F012E6F100E2F6FCDEC08F004
:1012EC001200016E0F0E8516F00E011601508512BC
:1012FC008584A00E00D0E82EFDD785941200020E36
:10130C0006EC09F01200010E06EC09F012000001C7
:04131C0038EF09F0AD
:020000040001F9
:04FFFC008DEF09F08C
:020000040030CA
:0C000000ECFF3DFF9FFFFFDFFFFFFFFF55
:00000001FF
