:04000000FEEFFFF020
:101000000053756D6D657220323032362D300044DC
:101010004143203D204144430000056E0504D8A40F
:1010200014EF08F016EF08F01CEF08F00450800FE2
:1010300036EC09F047EF08F0020E0518D8A423EFAC
:1010400008F025EF08F02BEF08F00450C00F36EC45
:1010500009F047EF08F0030E0518D8A432EF08F0A6
:1010600034EF08F03AEF08F00450940F36EC09F032
:1010700047EF08F0040E0518D8A441EF08F043EF3D
:1010800008F047EF08F00450D40F36EC09F01200D6
:10109000F80E8A6E859085828584A00E00D0E82E99
:1010A000FDD78FCF01F08594A00E00D0E82EFDD79C
:1010B0008584A00E00D0E82EFDD785940150800BCA
:1010C000016E77EF08F08584A00E00D0E82EFDD7E2
:1010D0008FCF01F08594A00E00D0E82EFDD7858437
:1010E000A00E00D0E82EFDD785945EEF08F0800EAC
:1010F0000118D8B47EEF08F080EF08F063EF08F035
:10110000120080EC09F0000E046E010E0DEC08F0E8
:10111000010E046EDCEC08F0000E046E020E0DEC05
:1011200008F00F0E046EDCEC08F095EC09F0050EEB
:10113000086ED89002320132082E99EF08F0015063
:101140000F012F6F090E096E1E0E086EE40EE82EB9
:10115000FED7082EFCD7092EFAD700D095EF08F05D
:10116000FEEFFFF085908592300EA8EC09F0150E89
:10117000046EC60EE82EFED7042EFCD700D0300E2B
:10118000A8EC09F0A00E00D0E82EFDD7300EA8EC98
:1011900009F0200EA8EC09F0010E36EC09F0280E3B
:1011A00036EC09F00F0E36EC09F0060E36EC09F0BD
:1011B000010E36EC09F0120004C001F01AEC09F03F
:1011C0000150066E076AF3EF08F004500724056E1D
:1011D00005C0F6FF100EF76E000EF86E0800F55011
:1011E0004FEC09F0072A0650075CD8A0FAEF08F088
:1011F000FCEF08F0E5EF08F012008A6A0F01216B9E
:101200009C0E056ED70EE82EFED7052EFCD70000EB
:10121000B2EC08F09C0E056ED70EE82EFED7052E18
:10122000FCD70000BAEC09F0B6EC09F0010E68EC4E
:1012300009F0120001C003F01FEF09F0012A01C0FC
:10124000F6FF100EF76E000EF86E0800F55000095C
:10125000D8A42DEF09F02FEF09F01EEF09F003508D
:10126000015C016E026A01BE02061200026E8590E8
:1012700048EC08F08A6AA00E00D0E82EFDD78592CF
:10128000859485900250F00B036E0350A8EC09F092
:101290000238F00B036E0350A8EC09F01200026E46
:1012A000858048EC08F08A6AA00E00D0E82EFDD7B1
:1012B0008592859485800250F00B036E0350A8EC54
:1012C00009F00238F00B036E0350A8EC09F012008D
:1012D000046E0450D8A46FEF09F071EF09F074EFB9
:1012E00009F00E0E36EC09F00404D8A47AEF09F0E8
:1012F0007CEF09F07FEF09F00C0E36EC09F01200DC
:10130000600E0E01D36F060ED96F400ED76F878027
:101310000F010C815B855B895A6B5B8F900E2E6F82
:10132000100E2F6FFDEC08F012000F015B815BB116
:101330009CEF09F09EEF09F097EF09F05F51046E02
:10134000036A5E510324016E000E0420026E120037
:10135000016E0F0E8516F00E011601508512858460
:10136000A00E00D0E82EFDD785941200020E36ECB8
:1013700009F01200010E36EC09F01200000181EFB5
:0213800008F073
:020000040001F9
:04FFFC00BEEF09F05B
:020000040030CA
:0C000000ECFF3DFF9FFFFFDFFFFFFFFF55
:00000001FF
