:020000000CD022
:10001A000E01600ED36F020ED96F500ED76F0F010B
:10002A0087810C910B81888114911381800E896FCD
:10003A001C6F8A6B216B856B8B912991F86BF76B1F
:10004A00F00EF66F0900F5CF84FF858161EC00F0B0
:10005A0085910900F5CF84FF858361EC00F08593D3
:10006A000900F5CF84FF858561EC00F085950900CC
:10007A00F5CF84FF858761EC00F08597F66F09005C
:10008A00F5CF84FF858961EC00F085990900F5CFE9
:10009A0084FF858B61EC00F0859B0900F5CF84FF16
:1000AA00858D61EC00F0859D0800F5CF84FF858F72
:1000BA0061EC00F0859FC4D700000000000000003A
:0200CA00120022
:0800F000383015773830157720
:020000040030CA
:0C000000FFFF3DFF9FFFFFFFFFFFFFFF22
:00000001FF
