:020000000CD022
:10001A000E01540ED36F020ED96F500ED76F0F0117
:10002A0087810C910B818881149113818B9129917D
:10003A00F00E8A6F216F800E896F1C6F856BF86BCB
:10004A00010EF76F500EF66F0900F5CF84FF858118
:10005A0046EC00F085910900F5CF84FF858346ECD4
:10006A0000F085930900F5CF84FF858546EC00F002
:10007A0085950800F5CF84FF858746EC00F08597C3
:10008A00E1D70000000000000000000000000000AE
:04009A000000120050
:04015000737B501C51
:020000040030CA
:0C000000FFFF3DFF9FFFFFFFFFFFFFFF22
:00000001FF
