:020000000CD022
:10001A000E01590ED36F020ED96F500ED76F0F0112
:10002A0087810C910B81888114911381800E896FCD
:10003A001C6FF00E8A6F216F856BF86B010EF76FDC
:10004A00800EF66F0900F5CF84FF858144EC00F03D
:10005A0085910900F5CF84FF858344EC00F08593F0
:10006A000900F5CF84FF858544EC00F085950800EA
:10007A00F5CF84FF858744EC00F08597E1D700002F
:10008A000000000000000000000000000000120054
:04018000735F6D7BC1
:020000040030CA
:0C000000FFFF3DFF9FFFFFFFFFFFFFFF22
:00000001FF
