:020000000CD022
:10001A000E01600ED36F020ED96F500ED76F0F010B
:10002A0087810C910B818881149113818B9129917D
:10003A00800E896F1C6FF00E8A6F216F856BF86BCB
:10004A002B0EF76FF66B0900F5CF84FF858145EC1F
:10005A0000F085910900F5CF84FF858345EC00F017
:10006A0085930900F5CF84FF858545EC00F08595D9
:10007A000800F5CF84FF858745EC00F08597E2D725
:10008A000000000000000000000000000000000066
:02009A00120052
:042B00005F38785C66
:020000040030CA
:0C000000FFFF3DFF9FFFFFFFFFFFFFFF22
:00000001FF
